:020000040000FA
:0400000079EF7EF026
:10FCF0000100F00EF66EFC0EF76E000EF86E0900B5
:10FD0000F5CF10F00900F5CF11F00F6A0E6A000E62
:10FD1000F86E0001EDEF7EF0000E046E000E036E33
:10FD2000A4EF7EF0000E056E00F000F000F000F091
:10FD300000F0052AC70E0564A0EF7EF0A2EF7EF06A
:10FD400094EF7EF0034A042A0150035C02500458E9
:10FD5000D8A0ADEF7EF0AFEF7EF092EF7EF0120014
:10FD6000170E026E700E016EB9EF7EF00106D8A07C
:10FD7000020681A6BEEF7EF0C0EF7EF0C9EF7EF0F6
:10FD800001500210D8A4C7EF7EF0C9EF7EF0B6EFA5
:10FD90007EF081B6CEEF7EF0D0EF7EF0ECEF7EF01D
:10FDA00010041110D8A4D7EF7EF0DAEF7EF0010E28
:10FDB000DBEF7EF0000E106E116A10501110D8A407
:10FDC000E4EF7EF0E6EF7EF0ECEF7EF0000E836E67
:10FDD000000E0F6E000E0E6E1200010EC26E0B0EA4
:10FDE000C16E010EC06EC30E926E3F0E936E010E79
:10FDF000946E000E956E000E966EB0EC7EF01004C0
:10FE00001110D8A406EF7FF008EF7FF0FDEF7EF031
:10FE1000000E33EC7FF001C00CF002C00DF0780E44
:10FE20000C5C010E0D58D8A018EF7FF01AEF7FF090
:10FE300027EF7FF00E500F10D8A421EF7FF023EFB3
:10FE40007FF02FEF7FF07BEC7FF0FDEF7EF0000E78
:10FE5000836E000E0F6E000E0E6EFDEF7EF0FDEF56
:10FE60007EF000EF00F0076E42EF7FF0010EC26EF1
:10FE70005BEF7FF0050EC26E5BEF7FF0090EC26E86
:10FE80005BEF7FF00750036E046A0450000AD8B499
:10FE90004CEF7FF05BEF7FF00350000AD8B436EFF1
:10FEA0007FF0010AD8B43AEF7FF0030AD8B43EEFEE
:10FEB0007FF05BEF7FF0C282C2B261EF7FF063EF51
:10FEC0007FF05CEF7FF0C3CF03F0060E046ED89096
:10FED0000332042E67EF7FF00350C4CF05F0066AAB
:10FEE000D89005360636D890053606360510016ED0
:10FEF0000650026E1200000E0F6E010E0E6E000E06
:10FF00000B6E000E0A6EB0EC7EF010501110D8A4EB
:10FF10008CEF7FF08EEF7FF096EF7FF0000E836E18
:10FF2000000E0F6E000E0E6EFFEF7FF0000E33EC32
:10FF30007FF001C008F002C009F0770E085C010EE6
:10FF40000958D8B0A6EF7FF0A8EF7FF0AAEF7FF0B6
:10FF50008EEF7FF0B0EC7EF010501110D8A4B3EF0C
:10FF60007FF0B5EF7FF0B7EF7FF08EEF7FF0010EFF
:10FF7000836EB0EC7EF010501110D8A4C2EF7FF069
:10FF8000C4EF7FF0C6EF7FF08EEF7FF0010E026EC0
:10FF9000F40E016E8CEC7EF0B0EC7EF0105011107F
:10FFA000D8A4D5EF7FF0D7EF7FF0D9EF7FF08EEFB9
:10FFB0007FF0000E836EB0EC7EF010501110D8A4CC
:10FFC000E4EF7FF0E6EF7FF0E8EF7FF08EEF7FF079
:10FFD000010E026EF40E016E8CEC7EF00A4A0B2AC2
:10FFE0000BBEFCEF7FF00B5009E1050E0A5CD8A0B8
:10FFF000FCEF7FF0FEEF7FF083EF7FF0836812006D
:020000040020DA
:08000000FFFFFFFFFFFFFFFF00
:020000040030CA
:0E000000FF06181EFF8180FF0FC00FE00F40AB
:00000001FF
