:020000040000FA
:04000000ECEF78F0B9
:10F1A200016E01C083FF1200016ED8900130011878
:10F1B2001200026E84820250D1EC78F08494849220
:10F1C20084821200026E84820250D1EC78F0848430
:10F1D20084928482120000EE1CF00F0EEE6AE806A2
:10F1E200FDE1000EF86E0001F1EF79F00B6E0BC03D
:10F1F20001F0026A000E046E0A0E036EF7EC7CF058
:10F2020001C009F002C00AF00BC001F0026A000E50
:10F21200046E0A0E036E02EC7EF00138F00B091048
:10F222001200FF0E0324056EFF0E0420066E06BEBA
:10F232001FEF79F01DEF79F021EF79F033EF79F0DC
:10F2420005500124D96E06500220DA6E000EDF6EE0
:10F252000506D8A0060606BE33EF79F031EF79F045
:10F2620021EF79F01200076ED8900730016E075037
:10F27200010B026E0740E8423F0B010B036E073899
:10F28200E842070B010B046E0744E846030B010B2F
:10F29200056E02500318066E0450061A0550061A2F
:10F2A2000638E846E00B01101200000E046E000E54
:10F2B200036E6EEF79F0000E056E00F000F000F0C4
:10F2C20000F000F0052AC70E05646AEF79F06CEFD2
:10F2D20079F05EEF79F0034A042A0150035C025090
:10F2E2000458D8A077EF79F079EF79F05CEF79F0F4
:10F2F2001200000E076E070E066E98EF79F00650A8
:10F302000124D96E07500220DA6E06C004F003C051
:10F3120005F0042A8FEF79F0D8900532042E8DEF94
:10F3220079F00550010BDF6E0606D8A0070607BE6E
:10F332009FEF79F09DEF79F080EF79F01200000EE7
:10F34200076EB3EF79F007500324056E000E042018
:10F35200066E05C0F6FF06C0F7FF0800F550E3ECA5
:10F3620078F0072A07500324056E000E0420066E6B
:10F3720005C0F6FF06C0F7FF0800F5500009D8A443
:10F38200C5EF79F0C7EF79F0A4EF79F01200010E22
:10F39200DAEC78F0800EDAEC78F08C0E036EFF0E69
:10F3A200046EA0EC79F0010E106E080E016E000ED4
:10F3B200026E10C003F07AEC79F0080E016E000EB6
:10F3C200026EA8EC7DF0105034EC79F0106E000E55
:10F3D200026EC80E016E56EC79F0D6EF79F012008B
:10F3E200010EC26E0B0EC16E010EC06EC30E926E86
:10F3F2003F0E936E010E946E000E956E000E966E89
:10F4020045EC7AF0010EDAEC78F0000E1B6E010E7C
:10F412001A6E1A0E016E000E026E64EC7EF01AC0B5
:10F4220016F01BC017F04FEC7DF00AEF7AF000EFF8
:10F4320000F0016E01C002F0070E0218D8A424EFFA
:10F442007AF026EF7AF02AEF7AF0000E2A6E35EF84
:10F452007AF0E00E0218D8A431EF7AF033EF7AF0A6
:10F4620035EF7AF0010E2A6E2A50D8A43BEF7AF0DB
:10F472003DEF7AF041EF7AF0D890023643EF7AF01E
:10F48200D89002320250120084928494000E026ECE
:10F49200140E016E56EC79F08482380EDAEC78F0B4
:10F4A200000E026E050E016E56EC79F0380EDAECA3
:10F4B20078F0000E026E010E016E56EC79F0380EF5
:10F4C200DAEC78F0080EDAEC78F00F0EDAEC78F07D
:10F4D200010EDAEC78F0380EDAEC78F0800EDAEC25
:10F4E20078F01200170E046E700E036E7CEF7AF045
:10F4F2000306D8A0040681A881EF7AF083EF7AF0A0
:10F5020093EF7AF081A688EF7AF08AEF7AF093EFA0
:10F512007AF003500410D8A491EF7AF093EF7AF0C6
:10F5220079EF7AF081A698EF7AF09AEF7AF0A1EF6C
:10F532007AF081B89FEF7AF0A1EF7AF0A7EF7AF034
:10F54200000E026E010E016EABEF7AF0000E026E3B
:10F55200000E016E1200010EDAEC78F0800EDAEC89
:10F5620078F06C0E036EFF0E046EA0EC79F0070EBD
:10F57200116E11C010F0080E016E000E026E10C066
:10F5820003F07AEC79F0080E016E000E026EA8EC20
:10F592007DF073EC7AF001040210D8A4D3EF7AF074
:10F5A200D5EF7AF0D7EF7AF0F0EF7AF0000E026E34
:10F5B200C80E016E56EC79F073EC7AF00104021079
:10F5C200D8A4E6EF7AF0E8EF7AF0EAEF7AF0F0EF1B
:10F5D2007AF011501AEC7AF0116EBAEF7AF012004A
:10F5E2001168010EDAEC78F0800EDAEC78F03C0E5D
:10F5F200036EFF0E046EA0EC79F01150D5EC78F09A
:10F60200106E080E016E000E026E10C003F07AEC4E
:10F6120079F0080E016E000E026EA8EC7DF073EC1C
:10F622007AF001040210D8A419EF7BF01BEF7BF0F3
:10F632001DEF7BF045EF7BF0000E026EC80E016EEF
:10F6420056EC79F073EC7AF001040210D8A42CEF96
:10F652007BF02EEF7BF030EF7BF045EF7BF0110675
:10F662001150D8A437EF7BF039EF7BF0FEEF7AF040
:10F67200010EDAEC78F0800EDAEC78F0C60E036E4A
:10F68200FF0E046EA0EC79F01200000E116E010E56
:10F69200DAEC78F0800EDAEC78F02C0E036EFF0EC6
:10F6A200046EA0EC79F01150D5EC78F0106E080ED3
:10F6B200016E000E026E10C003F07AEC79F0080EB3
:10F6C200016E000E026EA8EC7DF073EC7AF001047C
:10F6D2000210D8A46FEF7BF071EF7BF073EF7BF039
:10F6E2009BEF7BF0000E026EC80E016E56EC79F0B5
:10F6F20073EC7AF001040210D8A482EF7BF084EF5D
:10F702007BF086EF7BF09BEF7BF0112A1128D8A4C7
:10F712008DEF7BF08FEF7BF054EF7BF0010EDAEC94
:10F7220078F0800EDAEC78F0B80E036EFF0E046EFD
:10F73200A0EC79F01200000E156E010EDAEC78F0F2
:10F74200800EDAEC78F04C0E036EFF0E046EA0EC25
:10F7520079F01550F7EC78F0146E0C0E016E000E75
:10F76200026E14C003F07AEC79F00C0E016E000EFA
:10F77200026EA8EC7DF073EC7AF001040210D8A4BA
:10F78200C5EF7BF0C7EF7BF0C9EF7BF0F1EF7BF0C9
:10F79200000E026EC80E016E56EC79F073EC7AF030
:10F7A20001040210D8A4D8EF7BF0DAEF7BF0DCEF93
:10F7B2007BF0F1EF7BF0152A620E1564E3EF7BF02C
:10F7C200E5EF7BF0AAEF7BF0010EDAEC78F0800E29
:10F7D200DAEC78F0D40E036EFF0E046EA0EC79F032
:10F7E2001200630E156E010EDAEC78F0800EDAEC80
:10F7F20078F05C0E036EFF0E046EA0EC79F01550EB
:10F80200F7EC78F0146E0C0E016E000E026E14C04E
:10F8120003F07AEC79F00C0E016E000E026EA8EC89
:10F822007DF073EC7AF001040210D8A41BEF7CF097
:10F832001DEF7CF01FEF7CF047EF7CF0000E026EB4
:10F84200C80E016E56EC79F073EC7AF001040210E6
:10F85200D8A42EEF7CF030EF7CF032EF7CF047EF53
:10F862007CF015061550D8A439EF7CF03BEF7CF004
:10F8720000EF7CF0010EDAEC78F0800EDAEC78F032
:10F88200E20E036EFF0E046EA0EC79F01200010E80
:10F89200DAEC78F0800EDAEC78F01C0E036EFF0ED4
:10F8A200046EA0EC79F01068080E016E000E026E74
:10F8B20010C003F07AEC79F0080E016E000E026EB1
:10F8C200A8EC7DF073EC7AF001040210D8A46CEF7E
:10F8D2007CF06EEF7CF070EF7CF09EEF7CF0000E1F
:10F8E200026EC80E016E56EC79F073EC7AF00104E8
:10F8F2000210D8A47FEF7CF081EF7CF083EF7CF0E4
:10F902009EEF7CF01006020E10608AEF7CF08CEF06
:10F912007CF055EF7CF0010EDAEC78F0800EDAEC38
:10F9220078F0AA0E036EFF0E046EA0EC79F0000EC2
:10F93200026EC80E016E56EC79F01200010EDAEC7E
:10F9420078F0800EDAEC78F00C0E036EFF0E046E87
:10F95200A0EC79F0000E106E080E016E000E026E21
:10F9620010C003F07AEC79F0080E016E000E026E00
:10F97200A8EC7DF073EC7AF001040210D8A4C4EF75
:10F982007CF0C6EF7CF0C8EF7CF0F6EF7CF0000E66
:10F99200026EC80E016E56EC79F073EC7AF0010437
:10F9A2000210D8A4D7EF7CF0D9EF7CF0DBEF7CF02B
:10F9B200F6EF7CF0102A1028D8A4E2EF7CF0E4EFF6
:10F9C2007CF0ADEF7CF0010EDAEC78F0800EDAEC30
:10F9D20078F09C0E036EFF0E046EA0EC79F0000E20
:10F9E200026EC80E016E56EC79F01200000E066E21
:10F9F20002BE00EF7DF0FEEF7CF006EF7DF0016CC1
:10FA0200021ED8B0022A010E066E04BE0DEF7DF072
:10FA12000BEF7DF011EF7DF0036C041ED8B0042AC9
:10FA220003500410D8B418EF7DF01AEF7DF03EEFCA
:10FA32007DF0010E056E22EF7DF0D890033604367C
:10FA4200052A04AE27EF7DF029EF7DF01EEF7DF051
:10FA52000350015C04500258D8A032EF7DF034EF1D
:10FA62007DF038EF7DF00350015E0450025AD890C9
:10FA720004320332052E29EF7DF00650D8B444EF4C
:10FA82007DF046EF7DF04AEF7DF0016C021ED8B0AA
:10FA9200022A01C001F002C002F0120075EF7DF0EF
:10FAA2009FEC7CF0A7EF7DF048EC7CF0A7EF7DF0B7
:10FAB20046EC7BF0A7EF7DF0F1EC7AF0A7EF7DF05A
:10FAC2009CEC7BF0A7EF7DF0F2EC7BF0A7EF7DF0F2
:10FAD200ACEC7AF0A7EF7DF0D7EC7EF0A7EF7DF0EB
:10FAE200C8EC79F0A7EF7DF016C018F017C019F036
:10FAF2001950000AD8B480EF7DF0A7EF7DF01850BE
:10FB0200010AD8B451EF7DF0030AD8B455EF7DF065
:10FB1200010AD8B459EF7DF0070AD8B45DEF7DF041
:10FB2200010AD8B461EF7DF0030AD8B465EF7DF025
:10FB3200010AD8B469EF7DF00F0AD8B46DEF7DF0F9
:10FB4200010AD8B471EF7DF0A7EF7DF01200000E2C
:10FB5200036E20EE07F00150D9260250DA22DF5060
:10FB6200800DF35000080008000800080008000893
:10FB7200000800080008032620EE06F00150D926EE
:10FB82000250DA22DF50400DF350032620EE05F03A
:10FB92000150D9260250DA22DF50200DF3500326FD
:10FBA20020EE04F00150D9260250DA22DF50100D67
:10FBB200F350032620EE03F00150D9260250DA2238
:10FBC200DF50080DF350032620EE02F00150D92633
:10FBD2000250DA22DF50040DF350032620EE01F02A
:10FBE2000150D9260250DA22DF50020DF3500326CB
:10FBF20001C0D9FF02C0DAFFDF50032603C083FF32
:10FC02001200000E066E04BE0BEF7EF009EF7EF0CE
:10FC120011EF7EF0036C041ED8B0042A010E066EAA
:10FC220002BE18EF7EF016EF7EF01EEF7EF0016C42
:10FC3200021ED8B0022A010E061A000E086E000E2D
:10FC4200076E03500410D8B429EF7EF02BEF7EF03C
:10FC520053EF7EF0010E056E33EF7EF0D89003363F
:10FC62000436052A04AE38EF7EF03AEF7EF02FEF2D
:10FC72007EF0D890073608360350015C04500258D3
:10FC8200D8A046EF7EF048EF7EF04DEF7EF00350B5
:10FC9200015E0450025A0780D89004320332052EC6
:10FCA2003AEF7EF00650D8B459EF7EF05BEF7EF06B
:10FCB2005FEF7EF0076C081ED8B0082A07C001F07B
:10FCC20008C002F01200170E066E700E056E6DEF80
:10FCD2007EF00506D8A0060681A872EF7EF074EFCA
:10FCE2007EF084EF7EF081A679EF7EF07BEF7EF0EE
:10FCF20084EF7EF005500610D8A482EF7EF084EFE8
:10FD02007EF06AEF7EF081B689EF7EF08BEF7EF0B7
:10FD1200AEEF7EF001C0D9FF02C0DAFF010EDB5068
:10FD220007E1090EDE5CD8B099EF7EF09BEF7EF022
:10FD3200A4EF7EF001C0D9FF02C0DAFFDE2A000E76
:10FD4200DD22D6EF7EF001C0D9FF02C0DAFF010E3C
:10FD5200DE6E000EDD6ED6EF7EF081B8B3EF7EF080
:10FD6200B5EF7EF0D6EF7EF001C0D9FF02C0DAFF18
:10FD7200010EDB5009E1020EDE5CD8A0C3EF7EF07B
:10FD8200C5EF7EF0CEEF7EF001C0D9FF02C0DAFFF0
:10FD9200DE06000EDD5AD6EF7EF001C0D9FF02C0AA
:10FDA200DAFF090EDE6E000EDD6E1200010EDAECD5
:10FDB20078F0800EDAEC78F07C0E036EFF0E046EA3
:10FDC200A0EC79F0000E106E000E0F6E000E0E6E9B
:10FDD200000E0D6E000E0C6E000E0B6E000E0A6E03
:10FDE200010E096E000E126E070E116E000E146ED9
:10FDF200000E136E51EF7FF0090E1324D96E000E20
:10FE02001420DA6E010EDF6E73EC7AF00104021038
:10FE1200D8A40EEF7FF010EF7FF012EF7FF07CEFAF
:10FE22007FF0090E016E000E026E13C003F014C0C3
:10FE320004F012EC79F073EC7AF001040210D8A409
:10FE420025EF7FF027EF7FF029EF7FF07CEF7FF047
:10FE5200090E016E000E026EA8EC7DF073EC7AF0D2
:10FE620001040210D8A438EF7FF03AEF7FF03CEFA4
:10FE72007FF07CEF7FF0000E026E640E016E56EC96
:10FE820079F073EC7AF001040210D8A44BEF7FF002
:10FE92004DEF7FF04FEF7FF07CEF7FF0134A142A93
:10FEA2001350115C1250800A086E1450800A0858D0
:10FEB200D8B05EEF7FF060EF7FF0FDEF7EF01106CD
:10FEC200D8A0120612BE6AEF7FF068EF7FF0F7EF5C
:10FED2007EF0010EDAEC78F0800EDAEC78F0F00EBB
:10FEE200036EFF0E046EA0EC79F0010E026EF40EAA
:10FEF200016E56EC79F0120000303132333435366F
:10FF02003738394142434445460050726F67726147
:10FF12006D20312073746172740050726F67726168
:10FF22006D20322073746172740050726F67726157
:10FF32006D20332073746172740050726F67726146
:10FF42006D20342073746172740050726F67726135
:10FF52006D20352073746172740050726F67726124
:10FF62006D20362073746172740050726F67726113
:10FF72006D20372073746172740050726F67726102
:10FF82006D20382073746172740050726F677261F1
:10FF92006D20392073746172740050726F677261E0
:10FFA2006D203120656E640050726F6772616D2042
:10FFB2003220656E640050726F6772616D2033206B
:10FFC200656E640050726F6772616D203420656ED9
:10FFD200640050726F6772616D203520656E640037
:10FFE20050726F6772616D203620656E64005072C8
:0DFFF2006F6772616D203820656E6400003D
:020000040020DA
:08000000FFFFFFFFFFFFFFFF00
:020000040030CA
:0E000000FF06181EFF8180FF0FC00FE00F40AB
:00000001FF
