:020000040000FA
:0400000048EF0DF0C8
:101000000030313233343536373839414243444584
:101010004600475241435A20312050525A454752C8
:10102000414C00475241435A20322050525A4547C2
:1010300052414C00555354414C20435A4153204790
:10104000525900555A5957414A41432050320020C5
:0B1050004D494E200020534543000096
:10105C001C0E0B6E000E0C6E000E0E6E050E0D6E41
:10106C00000E106E0A0E0F6E365014EC09F0260EA0
:10107C000B6E000E0C6E000E0E6E050E0D6E000E3D
:10108C00106E0A0E0F6E345014EC09F0210E0B6E1C
:10109C00000E0C6E000E0E6E050E0D6E000E106E18
:1010AC000A0E0F6E325014EC09F0290E0B6E000E66
:1010BC000C6E000E0E6E050E0D6E000E106E0A0EEE
:1010CC000F6E305014EC09F036503710D8A471EF75
:1010DC0008F073EF08F07CEF08F034503510D8B4FA
:1010EC007AEF08F07CEF08F08EEF08F032503310F6
:1010FC00D8A483EF08F085EF08F0DAEF08F0305051
:10110C003110D8A48CEF08F08EEF08F0DAEF08F06D
:10111C0036503710D8A495EF08F097EF08F0AEEFE3
:10112C0008F034503510D8A49EEF08F0A0EF08F06A
:10113C00AEEF08F0010E5CEC0DF0800E5CEC0DF0E7
:10114C00120E036E100E046E47EC0CF0BAEF08F0A2
:10115C00010E5CEC0DF0800E5CEC0DF0230E036EBA
:10116C00100E046E47EC0CF0000E026EC80E016EF1
:10117C00EDEC0CF0000E2D6E000E2C6E000E376E8A
:10118C00000E366E000E356E000E346E000E336E91
:10119C00000E326E000E316E000E306E000E2F6E91
:1011AC00000E2E6E13EF09F0010E5CEC0DF0800EAC
:1011BC005CEC0DF01C0E036E000E046E47EC0CF094
:1011CC004F0E036E100E046E47EC0CF0260E036EE1
:1011DC00000E046E47EC0CF0550E036E100E046EF0
:1011EC0047EC0CF0C00E5CEC0DF0210E036E000E03
:1011FC00046E47EC0CF04F0E036E100E046E47ECB1
:10120C000CF0290E036E000E046E47EC0CF0550E1C
:10121C00036E100E046E47EC0CF01200196E010EEA
:10122C00156E100E166E000E186E000E176E000E58
:10123C001B6E000E1A6E0F501010D8A428EF09F078
:10124C002AEF09F02EEF09F0000E106E0A0E0F6E49
:10125C0019C001F0026A0FC003F010C004F017ECC3
:10126C000BF001C007F002C008F011EC0DF015C036
:10127C0011F016C012F0075011260850122211C09E
:10128C00F6FF12C0F7FF1A500B24D96E1B500C201E
:10129C00DA6E0800F5CFDFFF1A4A1B2AFF0E116E1B
:1012AC00FF0E126E0DC013F00EC014F01150132669
:1012BC001250142213501A5C14501B58D8B069EFFA
:1012CC0009F06BEF09F07EEF09F019C001F0026A2A
:1012DC000FC003F010C004F0B5EC0AF00150196E09
:1012EC001950D8A47CEF09F07EEF09F02EEF09F02D
:1012FC0017501810D8B485EF09F087EF09F091EF6B
:10130C0009F01A500B24D96E1B500C20DA6E2D0EDE
:10131C00DF6E1A4A1B2A1A500B24D96E1B500C2054
:10132C00DA6E000EDF6E0BC001F00CC002F01AC0BA
:10133C0003F01BC004F008EC0CF01200000E046E5D
:10134C00000E036EC6EF09F0000E056E00F031ECD6
:10135C000DF000F031EC0DF000F031EC0DF000F080
:10136C0031EC0DF000F031EC0DF0052AC70E0564E0
:10137C00C2EF09F0C4EF09F0ACEF09F0034A042AFC
:10138C000150035C02500458D8A0CFEF09F0D1EF04
:10139C0009F0AAEF09F02C042D10D8A4D8EF09F00D
:1013AC00DAEF09F001EF0AF034503510D8A4E1EF70
:1013BC0009F0E3EF09F0ECEF09F036503710D8B430
:1013CC00EAEF09F0ECEF09F001EF0AF034503510B8
:1013DC00D8B4F3EF09F0F5EF09F0FAEF09F03406A1
:1013EC00D8A0350601EF0AF03606D8A03706000E55
:1013FC00356E3B0E346E020E2C182D10D8A409EF4E
:10140C000AF00BEF0AF032EF0AF034503510D8A482
:10141C0012EF0AF014EF0AF01DEF0AF036503710F5
:10142C00D8B41BEF0AF01DEF0AF032EF0AF030507F
:10143C003110D8B424EF0AF026EF0AF02BEF0AF0A3
:10144C003006D8A0310632EF0AF03206D8A03306A7
:10145C00000E316E3B0E306E1200010EC0EC0BF024
:10146C0001C008F002C009F0000E0B6E550E0A6E9A
:10147C0085EC0CF008C011F009C012F02E502F10A2
:10148C00D8B44BEF0AF04DEF0AF09AEF0AF02C505B
:10149C002D10D8A454EF0AF056EF0AF0B4EF0AF06E
:1014AC009AEF0AF0000E2F6E050E2E6E000E376EA0
:1014BC00050E366E000E356E000E346E000E336E59
:1014CC00050E326E000E316E000E306EB4EF0AF067
:1014DC00000E2F6E030E2E6E000E376E030E366E40
:1014EC00000E356E000E346E000E336E030E326E2F
:1014FC00000E316E000E306EB4EF0AF0000E2F6E3F
:10150C00010E2E6E000E376E010E366E000E356E0D
:10151C00000E346E000E336E010E326E000E316E04
:10152C00000E306EB4EF0AF011C00FF012C010F0C4
:10153C001050000AD8B4A5EF0AF0B4EF0AF00F501F
:10154C00010AD8B458EF0AF0030AD8B46EEF0AF0C7
:10155C00010AD8B484EF0AF0B4EF0AF01200000EBE
:10156C00066E04BEBEEF0AF0BCEF0AF0C4EF0AF040
:10157C00036C041ED8B0042A010E066E02BECBEF1B
:10158C000AF0C9EF0AF0D1EF0AF0016C021ED8B0D4
:10159C00022A010E061A000E086E000E076E03508A
:1015AC000410D8B4DCEF0AF0DEEF0AF006EF0BF013
:1015BC00010E056EE6EF0AF0D89003360436052AC4
:1015CC0004AEEBEF0AF0EDEF0AF0E2EF0AF0D89080
:1015DC00073608360350015C04500258D8A0F9EFC6
:1015EC000AF0FBEF0AF000EF0BF00350015E045021
:1015FC00025A0780D89004320332052EEDEF0AF020
:10160C000650D8B40CEF0BF00EEF0BF012EF0BF002
:10161C00076C081ED8B0082A07C001F008C002F0F9
:10162C001200000E066E02BE20EF0BF01EEF0BF048
:10163C0026EF0BF0016C021ED8B0022A010E066ECA
:10164C0004BE2DEF0BF02BEF0BF031EF0BF0036C16
:10165C00041ED8B0042A03500410D8B438EF0BF091
:10166C003AEF0BF05EEF0BF0010E056E42EF0BF054
:10167C00D89003360436052A04AE47EF0BF049EF39
:10168C000BF03EEF0BF00350015C04500258D8A055
:10169C0052EF0BF054EF0BF058EF0BF00350015ED0
:1016AC000450025AD89004320332052E49EF0BF045
:1016BC000650D8B464EF0BF066EF0BF06AEF0BF04A
:1016CC00016C021ED8B0022A01C001F002C002F067
:1016DC001200010EC26E0B0EC16E010EC06EC30E57
:1016EC00926E3F0E936E010E946E000E956E000E70
:1016FC00966EBFEC0CF033EC0AF031EC0DF02E5082
:10170C002F10D8B48CEF0BF08EEF0BF092EF0BF098
:10171C002EEC08F0A4EF0BF0800E5CEC0DF0340E08
:10172C00036E100E046E47EC0CF0C00E5CEC0DF06A
:10173C00430E036E100E046E47EC0CF02E502F105F
:10174C00D8B4ABEF0BF0ADEF0BF081EF0BF02C50EE
:10175C002D10D8B4B4EF0BF0B6EF0BF081EF0BF00B
:10176C00000E026E140E016EA4EC09F081EF0BF06A
:10177C0000EF00F0076ECFEF0BF0010EC26EE8EF3A
:10178C000BF0050EC26EE8EF0BF0090EC26EE8EF1F
:10179C000BF00750036E046A0450000AD8B4D9EF5A
:1017AC000BF0E8EF0BF00350000AD8B4C3EF0BF0CA
:1017BC00010AD8B4C7EF0BF0030AD8B4CBEF0BF087
:1017CC00E8EF0BF0C282C2B2EEEF0BF0F0EF0BF0D1
:1017DC00E9EF0BF0C3CF03F0060E046ED890033282
:1017EC00042EF4EF0BF00350C4CF05F0066AD8902A
:1017FC0005360636D890053606360510016E0650AD
:10180C00026E1200000E076E000E066EFF0E032411
:10181C00086EFF0E0420096E37EF0CF00650012401
:10182C00D96E07500220DA6EDF50056E0850012485
:10183C00D96E09500220DA6E06500124E16E075071
:10184C000220E26EDFCFE7FF08500124D96E095069
:10185C000220DA6E05C0DFFF064A072A0806D8A068
:10186C0009060850065C09500758D8A040EF0CF048
:10187C0042EF0CF014EF0CF001C001F002C002F0CA
:10188C001200000E076E65EF0CF007500324056E76
:10189C00000E0420066E05C0F6FF06C0F7FF000E12
:1018AC00F86E0F0EF76403D00800F55005D0F6CF94
:1018BC00E1FFF7CFE2FFE75053EC0DF0072A07509A
:1018CC000324056E000E0420066E05C0F6FF06C04C
:1018DC00F7FF000EF86E0F0EF76403D00800F550FA
:1018EC0005D0F6CFE1FFF7CFE2FFE7500009D8A40F
:1018FC0082EF0CF084EF0CF04BEF0CF01200000EAA
:10190C000D6E000E0C6E0A500B10D8B490EF0CF04C
:10191C0092EF0CF0BAEF0CF0010E0E6E9AEF0CF089
:10192C00D8900A360B360E2A0BAE9FEF0CF0A1EFB7
:10193C000CF096EF0CF0D8900C360D360A50085C73
:10194C000B500958D8A0ADEF0CF0AFEF0CF0B4EF82
:10195C000CF00A50085E0B50095A0C80D8900B32D0
:10196C000A320E2EA1EF0CF00CC008F00DC009F0DD
:10197C00120084928494000E026E140E016EEDEC33
:10198C000CF08482380E5CEC0DF0000E026E050E2D
:10199C00016EEDEC0CF0380E5CEC0DF0000E026EEE
:1019AC00010E016EEDEC0CF0380E5CEC0DF0080E37
:1019BC005CEC0DF00F0E5CEC0DF0010E5CEC0DF020
:1019CC00380E5CEC0DF0800E5CEC0DF01200000E8D
:1019DC00046E000E036E05EF0DF0000E056E00F0A8
:1019EC0000F000F000F000F0052AC70E056401EFCE
:1019FC000DF003EF0DF0F5EF0CF0034A042A015043
:101A0C00035C02500458D8A00EEF0DF010EF0DF04F
:101A1C00F3EF0CF0120008BE1EEF0DF0085006E1BB
:101A2C000704D8B01CEF0DF01EEF0DF02CEF0DF0ED
:101A3C0007C009F008C00AF0091E0A1E094A0A2A42
:101A4C0009C007F00AC008F030EF0DF007C007F02E
:101A5C0008C008F0120081B636EF0DF038EF0DF02B
:101A6C003CEF0DF0000E2D6E020E2C6E81BA41EF84
:101A7C000DF043EF0DF047EF0DF0000E2D6E010E43
:101A8C002C6E120000EE2CF00C0EEE6AE806FDE156
:101A9C00000EF86E00016FEF0BF0026E84820250A4
:101AAC0065EC0DF08484849284821200026E848230
:101ABC00025065EC0DF08494849284821200016EC5
:061ACC0001C083FF1200BF
:020000040020DA
:08000000FFFFFFFFFFFFFFFF00
:020000040030CA
:0E000000FF06181EFF8180FF0FC00FE00F40AB
:00000001FF
