:020000040000FA
:04000000EBEF0DF025
:101000000030313233343536373839414243444584
:101010004600323030572067727A616E696500365B
:101020003030572067727A616E696500383030570A
:101030002067727A616E69650033353057206772B8
:101040007A616E696500323030572073746F7000BA
:10105000363030572073746F70003830305720733B
:10106000746F7000333530572073746F7000204DEB
:10107000494E2000205345430000000E046E000E30
:10108000036E3BEF09F0000E056E00F081B44BEFEC
:1010900008F04DEF08F05AEF08F024042510D8A40A
:1010A00054EF08F057EF08F0010E58EF08F0000E6B
:1010B000246E256A81BA5FEF08F061EF08F074EFE3
:1010C00008F0275007E1020E265CD8B06AEF08F05E
:1010D0006CEF08F070EF08F0264A272A74EF08F04A
:1010E000000E276E000E266E00F081B47AEF08F035
:1010F0007CEF08F089EF08F024042510D8A483EFD2
:1011000008F086EF08F0010E87EF08F0000E246E5D
:10111000256A81BA8EEF08F090EF08F0A3EF08F08F
:10112000275007E1020E265CD8B099EF08F09BEF3C
:1011300008F09FEF08F0264A272AA3EF08F0000ED8
:10114000276E000E266E00F081B4A9EF08F0ABEF19
:1011500008F0B8EF08F024042510D8A4B2EF08F086
:10116000B5EF08F0010EB6EF08F0000E246E256A08
:1011700081BABDEF08F0BFEF08F0D2EF08F02750BA
:1011800007E1020E265CD8B0C8EF08F0CAEF08F0FD
:10119000CEEF08F0264A272AD2EF08F0000E276E7D
:1011A000000E266E00F081B4D8EF08F0DAEF08F0F8
:1011B000E7EF08F024042510D8A4E1EF08F0E4EFED
:1011C00008F0010EE5EF08F0000E246E256A81BAE2
:1011D000ECEF08F0EEEF08F001EF09F0275007E11F
:1011E000020E265CD8B0F7EF08F0F9EF08F0FDEF3B
:1011F00008F0264A272A01EF09F0000E276E000E9C
:10120000266E00F081B407EF09F009EF09F016EF40
:1012100009F024042510D8A410EF09F013EF09F009
:10122000010E14EF09F0000E246E256A81BA1BEF3F
:1012300009F01DEF09F030EF09F0275007E1020E29
:10124000265CD8B026EF09F028EF09F02CEF09F062
:10125000264A272A30EF09F0000E276E000E266E70
:10126000052AC70E056437EF09F039EF09F045EF9D
:1012700008F0034A042A0150035C02500458D8A025
:1012800044EF09F046EF09F043EF08F01200196E41
:10129000010E156E100E166E000E186E000E176EF3
:1012A000000E1B6E000E1A6E0F501010D8A45BEFCC
:1012B00009F05DEF09F061EF09F0000E106E0A0E03
:1012C0000F6E19C001F0026A0FC003F010C004F0E5
:1012D0001FEC0BF001C007F002C008F0CBEC0DF0E2
:1012E00015C011F016C012F0075011260850122236
:1012F00011C0F6FF12C0F7FF1A500B24D96E1B5015
:101300000C20DA6E0800F5CFDFFF1A4A1B2AFF0E09
:10131000116EFF0E126E0DC013F00EC014F01150BE
:1013200013261250142213501A5C14501B58D8B0B4
:101330009CEF09F09EEF09F0B1EF09F019C001F040
:10134000026A0FC003F010C004F05CEC0AF0015018
:10135000196E1950D8A4AFEF09F0B1EF09F061EFA1
:1013600009F017501810D8B4B8EF09F0BAEF09F027
:10137000C4EF09F01A500B24D96E1B500C20DA6E02
:101380002D0EDF6E1A4A1B2A1A500B24D96E1B50E1
:101390000C20DA6E000EDF6E0BC001F00CC002F004
:1013A0001AC003F01BC004F0FCEC0BF012003DEF80
:1013B0000AF024042510D8A4E0EF09F0E2EF09F0C8
:1013C000EAEF09F02C0E036E100E046E3BEC0CF0ED
:1013D0005BEF0AF05A0E036E100E046E3BEC0CF03D
:1013E0005BEF0AF024042510D8A4F9EF09F0FBEF15
:1013F00009F003EF0AF01F0E036E100E046E3BECB3
:101400000CF05BEF0AF0500E036E100E046E3BEC16
:101410000CF05BEF0AF024042510D8A412EF0AF0B8
:1014200014EF0AF01CEF0AF0390E036E100E046E72
:101430003BEC0CF05BEF0AF0640E036E100E046ED2
:101440003BEC0CF05BEF0AF024042510D8A42BEF42
:101450000AF02DEF0AF035EF0AF0120E036E100EAF
:10146000046E3BEC0CF05BEF0AF0460E036E100EC0
:10147000046E3BEC0CF05BEF0AF026C008F027C0CE
:1014800009F00950000AD8B448EF0AF05BEF0AF0FF
:101490000850000AD8B4D9EF09F0010AD8B4F2EF25
:1014A00009F0030AD8B40BEF0AF0010AD8B424EF0C
:1014B0000AF05BEF0AF01200000E066E04BE65EF44
:1014C0000AF063EF0AF06BEF0AF0036C041ED8B069
:1014D000042A010E066E02BE72EF0AF070EF0AF0E7
:1014E00078EF0AF0016C021ED8B0022A010E061A2B
:1014F000000E086E000E076E03500410D8B483EF80
:101500000AF085EF0AF0ADEF0AF0010E056E8DEFDF
:101510000AF0D89003360436052A04AE92EF0AF09A
:1015200094EF0AF089EF0AF0D89007360836035096
:10153000015C04500258D8A0A0EF0AF0A2EF0AF014
:10154000A7EF0AF00350015E0450025A0780D890BA
:1015500004320332052E94EF0AF00650D8B4B3EFEC
:101560000AF0B5EF0AF0B9EF0AF0076C081ED8B020
:10157000082A07C001F008C002F012008368F5EFE6
:101580000AF0010E02EC0EF0D7EC09F079EC0CF049
:101590002A502B10D8A4CFEF0AF0D1EF0AF0DAEFDF
:1015A0000AF028502910D8B4D8EF0AF0DAEF0AF080
:1015B000EFEF0AF028502910D8B4E1EF0AF0E3EF7A
:1015C0000AF0E8EF0AF02806D8A02906EFEF0AF0A3
:1015D000000E296E3B0E286E2A06D8A02B06000EA0
:1015E000026E320E016E3DEC08F02A502B10D8A48A
:1015F000FCEF0AF0FEEF0AF007EF0BF0285029107D
:10160000D8B405EF0BF007EF0BF010EF0BF024044C
:101610002510D8B40EEF0BF010EF0BF0C1EF0AF06D
:10162000000E836E000E256E000E246ED7EC09F0BE
:1016300079EC0CF0000E2D6E010E2C6E1200000ED7
:10164000066E02BE28EF0BF026EF0BF02EEF0BF02C
:10165000016C021ED8B0022A010E066E04BE35EFE0
:101660000BF033EF0BF039EF0BF0036C041ED8B026
:10167000042A03500410D8B440EF0BF042EF0BF0F3
:1016800066EF0BF0010E056E4AEF0BF0D8900336B3
:101690000436052A04AE4FEF0BF051EF0BF046EF86
:1016A0000BF00350015C04500258D8A05AEF0BF025
:1016B0005CEF0BF060EF0BF00350015E0450025A38
:1016C000D89004320332052E51EF0BF00650D8B4F7
:1016D0006CEF0BF06EEF0BF072EF0BF0016C021E73
:1016E000D8B0022A01C001F002C002F01200170EA9
:1016F000026E700E016E80EF0BF00106D8A002069C
:1017000081A685EF0BF087EF0BF090EF0BF0015007
:101710000210D8A48EEF0BF090EF0BF07DEF0BF0E2
:1017200081B695EF0BF097EF0BF0BCEF0BF0000ECE
:101730002D6E010E2C6E320E28182910D8A4A3EF9E
:101740000BF0A5EF0BF0B8EF0BF0E60E2A5C030EE2
:101750002B58D8B0AEEF0BF0B0EF0BF0B8EF0BF0AA
:101760002A4A2B2A000E296E000E286EBCEF0BF0C1
:101770000A0E2826000E29221200010EC26E0B0E40
:10178000C16E010EC06EC30E926E3F0E936E010EBF
:10179000946E000E956E000E966E4CEC0DF02C04BF
:1017A0002D10D8A4D6EF0BF0D8EF0BF0E3EF0BF031
:1017B000010E02EC0EF0D7EC09F079EC0CF0000E03
:1017C0002D6E000E2C6EB3EC0CF0EBEC0CF077EC05
:1017D0000BF07AEC0DF01DEC0DF024042510D8A4CC
:1017E000F4EF0BF0F6EF0BF0CFEF0BF0BEEC0AF0DE
:1017F000CFEF0BF000EF00F0000E076E000E066E4C
:10180000FF0E0324086EFF0E0420096E2BEF0CF070
:1018100006500124D96E07500220DA6EDF50056EA3
:1018200008500124D96E09500220DA6E06500124B6
:10183000E16E07500220E26EDFCFE7FF085001247F
:10184000D96E09500220DA6E05C0DFFF064A072A6A
:101850000806D8A009060850065C09500758D8A009
:1018600034EF0CF036EF0CF008EF0CF001C001F093
:1018700002C002F01200000E076E59EF0CF0075084
:101880000324056E000E0420066E05C0F6FF06C098
:10189000F7FF000EF86E0F0EF76403D00800F55046
:1018A00005D0F6CFE1FFF7CFE2FFE7500BEC0EF0EB
:1018B000072A07500324056E000E0420066E05C09B
:1018C000F6FF06C0F7FF000EF86E0F0EF76403D0A8
:1018D0000800F55005D0F6CFE1FFF7CFE2FFE75063
:1018E0000009D8A476EF0CF078EF0CF03FEF0CF085
:1018F00012001C0E0B6E000E0C6E000E0E6E050E0E
:101900000D6E000E106E0A0E0F6E2A5047EC09F095
:10191000210E0B6E000E0C6E000E0E6E050E0D6E7F
:10192000000E106E0A0E0F6E285047EC09F0C00E24
:1019300002EC0EF01C0E036E000E046E3BEC0CF07D
:101940006E0E036E100E046E3BEC0CF0210E036E57
:10195000000E046E3BEC0CF0740E036E100E046E61
:101960003BEC0CF01200170E026E700E016EBCEF15
:101970000CF00106D8A0020681AAC1EF0CF0C3EF5B
:101980000CF0CCEF0CF001500210D8A4CAEF0CF010
:10199000CCEF0CF0B9EF0CF081BAD1EF0CF0D3EF33
:1019A0000CF0EAEF0CF0000E2D6E010E2C6E27509D
:1019B00007E1020E265CD8B0E0EF0CF0E2EF0CF08D
:1019C000E6EF0CF0264A272AEAEF0CF0000E276E0D
:1019D000000E266E1200170E026E700E016EF4EFEE
:1019E0000CF00106D8A0020681A8F9EF0CF0FBEF7D
:1019F0000CF004EF0DF001500210D8A402EF0DF02E
:101A000004EF0DF0F1EF0CF081B809EF0DF00BEFE2
:101A10000DF01CEF0DF0000E2D6E010E2C6EE60E7B
:101A20002A5C030E2B58D8B018EF0DF01AEF0DF00A
:101A30001CEF0DF02A4A2B2A1200170E026E700EB0
:101A4000016E26EF0DF00106D8A0020681A42BEF4F
:101A50000DF02DEF0DF036EF0DF001500210D8A46F
:101A600034EF0DF036EF0DF023EF0DF081B43BEFC6
:101A70000DF03DEF0DF04BEF0DF083682450251075
:101A8000D8B445EF0DF048EF0DF0010E49EF0DF021
:101A9000000E246E256A120084928494000E026E59
:101AA000140E016EA7EC0DF08482380E02EC0EF0DD
:101AB000000E026E050E016EA7EC0DF0380E02EC62
:101AC0000EF0000E026E010E016EA7EC0DF0380E46
:101AD00002EC0EF0080E02EC0EF00F0E02EC0EF00F
:101AE000010E02EC0EF0380E02EC0EF0800E02EC4D
:101AF0000EF01200170E026E700E016E83EF0DF0E5
:101B00000106D8A0020681A288EF0DF08AEF0DF041
:101B100093EF0DF001500210D8A491EF0DF093EF68
:101B20000DF080EF0DF081B298EF0DF09AEF0DF00F
:101B3000A6EF0DF0000E2D6E010E2C6E000E2B6E1A
:101B4000000E2A6E000E296E000E286E1200000E86
:101B5000046E000E036EBFEF0DF0000E056E00F078
:101B600000F000F000F000F0052AC70E0564BBEF9E
:101B70000DF0BDEF0DF0AFEF0DF0034A042A015058
:101B8000035C02500458D8A0C8EF0DF0CAEF0DF066
:101B9000ADEF0DF0120008BED8EF0DF0085006E1D1
:101BA0000704D8B0D6EF0DF0D8EF0DF0E6EF0DF04A
:101BB00007C009F008C00AF0091E0A1E094A0A2ACD
:101BC00009C007F00AC008F0EAEF0DF007C007F0FF
:101BD00008C008F01200300EF66E1C0EF76E000EF4
:101BE000F86E0900F5CF2CF00900F5CF2DF000EECE
:101BF00024F0080EEE6AE806FDE1000EF86E000122
:101C0000BDEF0BF0026E8482025014EC0EF084944F
:101C1000849284821200026E8482025014EC0EF0D0
:101C20008484849284821200016E01C083FF1200BA
:021C30000100B1
:020000040020DA
:08000000FFFFFFFFFFFFFFFF00
:020000040030CA
:0E000000FF06181EFF8180FF0FC00FE00F40AB
:00000001FF
