:020000040000FA
:0400000063EF0BF0AF
:101000000030313233343536373839414243444584
:10101000460050726F6772616D2031207374617287
:10102000740050726F6772616D2032207374617248
:10103000740050726F6772616D203120656E6400BC
:0F10400050726F6772616D203220656E64000020
:10105000170E066E700E056E31EF08F00506D8A06B
:10106000060681A836EF08F038EF08F048EF08F0E0
:1010700081A63DEF08F03FEF08F048EF08F005507B
:101080000610D8A446EF08F048EF08F02EEF08F05D
:1010900081B64DEF08F04FEF08F072EF08F001C095
:1010A000D9FF02C0DAFF010EDB5007E1020EDE5C61
:1010B000D8B05DEF08F05FEF08F068EF08F001C00E
:1010C000D9FF02C0DAFFDE2A000EDD229AEF08F017
:1010D00001C0D9FF02C0DAFF010EDE6E000EDD6E28
:1010E0009AEF08F081B877EF08F079EF08F09AEFFF
:1010F00008F001C0D9FF02C0DAFF010EDB5009E1A0
:10110000020EDE5CD8A087EF08F089EF08F092EFBE
:1011100008F001C0D9FF02C0DAFFDE06000EDD5A7A
:101120009AEF08F001C0D9FF02C0DAFF020EDE6EAE
:10113000000EDD6E1200010E77EC0BF0800E77ECE6
:101140000BF0120E036E100E046EBBEC0AF0000ED4
:101150001F6E170E016E000E026E1FC003F0E3EC4F
:101160000AF0170E016E000E026EF7EC08F02BEC81
:101170000AF001040210D8A4C0EF08F0C2EF08F092
:10118000C4EF08F0F6EF08F04EEC0BF00FC012F0D1
:1011900010C013F009EC0BF02BEC0AF00104021064
:1011A000D8A4D5EF08F0D7EF08F0D9EF08F0F6EFA4
:1011B00008F01F2A1F28D8A4E0EF08F0E2EF08F09B
:1011C000A9EF08F0010E77EC0BF0800E77EC0BF036
:1011D000320E036E100E046EBBEC0AF04EEC0BF0F8
:1011E0000FC012F010C013F009EC0BF01200000E4B
:1011F000036E20EE07F00150D9260250DA22DF50AC
:10120000800DF350000800080008000800080008DE
:10121000000800080008032620EE06F00150D92639
:101220000250DA22DF50400DF350032620EE05F085
:101230000150D9260250DA22DF50200DF350032648
:1012400020EE04F00150D9260250DA22DF50100DB2
:10125000F350032620EE03F00150D9260250DA2283
:10126000DF50080DF350032620EE02F00150D9267E
:101270000250DA22DF50040DF350032620EE01F075
:101280000150D9260250DA22DF50020DF350032616
:1012900001C0D9FF02C0DAFFDF50032603C083FF7D
:1012A0001200000E206E010E77EC0BF0800E77EC32
:1012B0000BF0220E036E100E046EBBEC0AF02050F1
:1012C00080EC0BF01F6E170E016E000E026E1FC039
:1012D00003F0E3EC0AF0170E016E000E026EF7EC5D
:1012E00008F02BEC0AF001040210D8A47AEF09F000
:1012F0007CEF09F07EEF09F0A8EF09F04EEC0BF05F
:101300000FC012F010C013F009EC0BF02BEC0AF038
:1013100001040210D8A48FEF09F091EF09F093EFC8
:1013200009F0A8EF09F0202A2028D8A49AEF09F0A4
:101330009CEF09F05FEF09F0010E77EC0BF0800EE7
:1013400077EC0BF0400E036E100E046EBBEC0AF04F
:101350001200076EB8EF09F0010EC26ED1EF09F06E
:10136000050EC26ED1EF09F0090EC26ED1EF09F081
:101370000750036E046A0450000AD8B4C2EF09F0A3
:10138000D1EF09F00350000AD8B4ACEF09F0010A1C
:10139000D8B4B0EF09F0030AD8B4B4EF09F0D1EF34
:1013A00009F0C282C2B2D7EF09F0D9EF09F0D2EF4B
:1013B00009F0C3CF03F0060E046ED8900332042E5A
:1013C000DDEF09F00350C4CF05F0066AD89005366A
:1013D0000636D890053606360510016E0650026EA8
:1013E0001200000E0D6E000E0C6E0A500B10D8B4D9
:1013F000FCEF09F0FEEF09F026EF0AF0010E0E6E89
:1014000006EF0AF0D8900A360B360E2A0BAE0BEF19
:101410000AF00DEF0AF002EF0AF0D8900C360D3604
:101420000A50085C0B500958D8A019EF0AF01BEFBE
:101430000AF020EF0AF00A50085E0B50095A0C809F
:10144000D8900B320A320E2E0DEF0AF00CC008F0C5
:101450000DC009F01200170E046E700E036E34EF0B
:101460000AF00306D8A0040681A839EF0AF03BEF82
:101470000AF04BEF0AF081A640EF0AF042EF0AF0C3
:101480004BEF0AF003500410D8A449EF0AF04BEFD9
:101490000AF031EF0AF081A650EF0AF052EF0AF09D
:1014A00059EF0AF081B857EF0AF059EF0AF05FEFF1
:1014B0000AF0000E026E010E016E63EF0AF0000EDC
:1014C000026E000E016E120084928494000E136E60
:1014D000140E126E09EC0BF08482380E77EC0BF0D0
:1014E000000E136E050E126E09EC0BF0380E77EC41
:1014F0000BF0000E136E010E126E09EC0BF0380E9D
:1015000077EC0BF0080E77EC0BF00F0E77EC0BF08E
:10151000010E77EC0BF0380E77EC0BF0800E77ECC9
:101520000BF01200010EC26E0B0EC16E010EC06EEA
:10153000C30E926E3F0E936E010E946E000E956E6A
:10154000000E966E64EC0AF0010E77EC0BF0000EC4
:10155000266E010E256E250E016E000E026E28EC21
:1015600008F025C021F026C022F02DEC0BF0ABEFE7
:101570000AF000EF00F0000E076ECEEF0AF0075001
:101580000324056E000E0420066E05C0F6FF06C09B
:10159000F7FF0800F5506EEC0BF0072A0750032404
:1015A000056E000E0420066E05C0F6FF06C0F7FFAC
:1015B0000800F5500009D8A4E0EF0AF0E2EF0AF0C5
:1015C000BFEF0AF01200000E076E070E066E01EF65
:1015D0000BF006500124D96E07500220DA6E06C0C7
:1015E00004F003C005F0042AF8EF0AF0D8900532A1
:1015F000042EF6EF0AF00550010BDF6E0606D8A0A8
:10160000070607BE08EF0BF006EF0BF0E9EF0AF054
:101610001200000E156E000E146E21EF0BF0000E7E
:10162000166E00F000F000F000F000F0162AC70E71
:1016300016641DEF0BF01FEF0BF011EF0BF0144AC7
:10164000152A1250145C13501558D8A02AEF0BF02D
:101650002CEF0BF00FEF0BF0120037EF0BF09BECC1
:1016600008F04DEF0BF051EC09F04DEF0BF021C0FD
:1016700023F022C024F02450000AD8B442EF0BF02B
:101680004DEF0BF02350010AD8B42FEF0BF0030AF3
:10169000D8B433EF0BF04DEF0BF01200010EA9ECB4
:1016A00009F001C008F002C009F0000E0B6EF00E48
:1016B0000A6EF1EC09F00850FA0DF3CF11F011C0E9
:1016C0000FF0106A120000EE27F00F0EEE6AE80627
:1016D000FDE1000EF86E000192EF0AF0026E8482C6
:1016E000025085EC0BF08484849284821200026E96
:1016F0008482025085EC0BF08494849284821200E0
:10170000016ED890013001181200016E01C083FFF4
:021710001200C5
:020000040020DA
:08000000FFFFFFFFFFFFFFFF00
:020000040030CA
:0E000000FF06181EFF8180FF0FC00FE00F40AB
:00000001FF
